{
  "_format": "hh-sol-artifact-1",
  "contractName": "GAOrganization",
  "sourceName": "contracts/Vesting.sol",
  "abi": [
    {
      "inputs": [
        {
          "internalType": "address",
          "name": "_owner",
          "type": "address"
        },
        {
          "internalType": "contract IERC20",
          "name": "_token",
          "type": "address"
        }
      ],
      "stateMutability": "nonpayable",
      "type": "constructor"
    },
    {
      "anonymous": false,
      "inputs": [
        {
          "indexed": false,
          "internalType": "address",
          "name": "stake_holder",
          "type": "address"
        },
        {
          "indexed": false,
          "internalType": "uint256",
          "name": "amount",
          "type": "uint256"
        }
      ],
      "name": "LogEvent",
      "type": "event"
    },
    {
      "inputs": [
        {
          "internalType": "address",
          "name": "_stake_holder",
          "type": "address"
        },
        {
          "internalType": "uint256",
          "name": "_amount",
          "type": "uint256"
        },
        {
          "internalType": "uint256",
          "name": "_vestingPeriod",
          "type": "uint256"
        }
      ],
      "name": "addStakeHolder",
      "outputs": [],
      "stateMutability": "nonpayable",
      "type": "function"
    },
    {
      "inputs": [
        {
          "internalType": "address",
          "name": "",
          "type": "address"
        }
      ],
      "name": "stake_holders",
      "outputs": [
        {
          "internalType": "bool",
          "name": "isWaitListed",
          "type": "bool"
        },
        {
          "internalType": "uint256",
          "name": "vestingPeriod",
          "type": "uint256"
        },
        {
          "internalType": "uint256",
          "name": "amount",
          "type": "uint256"
        }
      ],
      "stateMutability": "view",
      "type": "function"
    },
    {
      "inputs": [],
      "name": "withdraw",
      "outputs": [],
      "stateMutability": "nonpayable",
      "type": "function"
    }
  ],
  "bytecode": "0x608060405234801561001057600080fd5b50604051610aba380380610aba8339818101604052810190610032919061015b565b81600260006101000a81548173ffffffffffffffffffffffffffffffffffffffff021916908373ffffffffffffffffffffffffffffffffffffffff160217905550806000806101000a81548173ffffffffffffffffffffffffffffffffffffffff021916908373ffffffffffffffffffffffffffffffffffffffff160217905550505061019b565b600080fd5b600073ffffffffffffffffffffffffffffffffffffffff82169050919050565b60006100ea826100bf565b9050919050565b6100fa816100df565b811461010557600080fd5b50565b600081519050610117816100f1565b92915050565b6000610128826100df565b9050919050565b6101388161011d565b811461014357600080fd5b50565b6000815190506101558161012f565b92915050565b60008060408385031215610172576101716100ba565b5b600061018085828601610108565b925050602061019185828601610146565b9150509250929050565b610910806101aa6000396000f3fe608060405234801561001057600080fd5b50600436106100415760003560e01c80633ccfd60b146100465780636312a6c514610050578063678da03714610082575b600080fd5b61004e61009e565b005b61006a60048036038101906100659190610514565b610318565b60405161007993929190610575565b60405180910390f35b61009c600480360381019061009791906105d8565b61034f565b005b6000600160003373ffffffffffffffffffffffffffffffffffffffff1673ffffffffffffffffffffffffffffffffffffffff1681526020019081526020016000206040518060600160405290816000820160009054906101000a900460ff16151515158152602001600182015481526020016002820154815250509050600115158160000151151514610166576040517f08c379a000000000000000000000000000000000000000000000000000000000815260040161015d90610688565b60405180910390fd5b428160200151106101ac576040517f08c379a00000000000000000000000000000000000000000000000000000000081526004016101a3906106f4565b60405180910390fd5b60008160400151116101f3576040517f08c379a00000000000000000000000000000000000000000000000000000000081526004016101ea90610760565b60405180910390fd5b60008160400151905060008054906101000a900473ffffffffffffffffffffffffffffffffffffffff1673ffffffffffffffffffffffffffffffffffffffff166323b872dd600260009054906101000a900473ffffffffffffffffffffffffffffffffffffffff1633846040518463ffffffff1660e01b815260040161027b9392919061078f565b6020604051808303816000875af115801561029a573d6000803e3d6000fd5b505050506040513d601f19601f820116820180604052508101906102be91906107f2565b507f533eae3b904482e40ffc1558e1450348fbf20cd36bd0fde8d006ecb9819f53d333826040516102f092919061081f565b60405180910390a1600082604001818152505060008260000190151590811515815250505050565b60016020528060005260406000206000915090508060000160009054906101000a900460ff16908060010154908060020154905083565b3373ffffffffffffffffffffffffffffffffffffffff16600260009054906101000a900473ffffffffffffffffffffffffffffffffffffffff1673ffffffffffffffffffffffffffffffffffffffff16146103df576040517f08c379a00000000000000000000000000000000000000000000000000000000081526004016103d6906108ba565b60405180910390fd5b604051806060016040528060011515815260200182815260200183815250600160008573ffffffffffffffffffffffffffffffffffffffff1673ffffffffffffffffffffffffffffffffffffffff16815260200190815260200160002060008201518160000160006101000a81548160ff02191690831515021790555060208201518160010155604082015181600201559050507f533eae3b904482e40ffc1558e1450348fbf20cd36bd0fde8d006ecb9819f53d383836040516104a492919061081f565b60405180910390a1505050565b600080fd5b600073ffffffffffffffffffffffffffffffffffffffff82169050919050565b60006104e1826104b6565b9050919050565b6104f1816104d6565b81146104fc57600080fd5b50565b60008135905061050e816104e8565b92915050565b60006020828403121561052a576105296104b1565b5b6000610538848285016104ff565b91505092915050565b60008115159050919050565b61055681610541565b82525050565b6000819050919050565b61056f8161055c565b82525050565b600060608201905061058a600083018661054d565b6105976020830185610566565b6105a46040830184610566565b949350505050565b6105b58161055c565b81146105c057600080fd5b50565b6000813590506105d2816105ac565b92915050565b6000806000606084860312156105f1576105f06104b1565b5b60006105ff868287016104ff565b9350506020610610868287016105c3565b9250506040610621868287016105c3565b9150509250925092565b600082825260208201905092915050565b7f596f752068617665206e6f74206265656e20776169746c697374656400000000600082015250565b6000610672601c8361062b565b915061067d8261063c565b602082019050919050565b600060208201905081810360008301526106a181610665565b9050919050565b7f56657374696e6720706572696f64206e6f742079657420647565210000000000600082015250565b60006106de601b8361062b565b91506106e9826106a8565b602082019050919050565b6000602082019050818103600083015261070d816106d1565b9050919050565b7f4e6f20656e6f7567682066756e64730000000000000000000000000000000000600082015250565b600061074a600f8361062b565b915061075582610714565b602082019050919050565b600060208201905081810360008301526107798161073d565b9050919050565b610789816104d6565b82525050565b60006060820190506107a46000830186610780565b6107b16020830185610780565b6107be6040830184610566565b949350505050565b6107cf81610541565b81146107da57600080fd5b50565b6000815190506107ec816107c6565b92915050565b600060208284031215610808576108076104b1565b5b6000610816848285016107dd565b91505092915050565b60006040820190506108346000830185610780565b6108416020830184610566565b9392505050565b7f4f6e6c79207468652061646d696e20697320616c6c6f77656420746f2063616c60008201527f6c20746869732066756e6374696f6e0000000000000000000000000000000000602082015250565b60006108a4602f8361062b565b91506108af82610848565b604082019050919050565b600060208201905081810360008301526108d381610897565b905091905056fea26469706673582212202d4a9714a02dbd728b109820122232cab7b77d123c04d33bdea10604dc4ef7fd64736f6c63430008180033",
  "linkReferences": {},
  "deployedLinkReferences": {}
}